:0400000007EF00F016
:0A0008005F822AED14F07EEF16F07F
:1008000000C30809083D086B0834034D0069006304
:100810000072006F006300680069007000200054DF
:10082000006500630068006E006F006C006F006779
:10083000007900200049006E0063002E002E035353
:100840000069006D0070006C0065002000480049E0
:1008500000440020004400650076006900630065E4
:10086000002000440065006D006F000902290001AE
:100870000100C03209040000020300000009211138
:10088000010001221D000705810340000107050149
:10089000034000010600FF0901A1011901294015CB
:1008A0000026FF007508954081001901294091003C
:1008B000C01201000200000008D8043F000001013E
:1008C000020001040309040004012205D8A46BEF0F
:1008D00004F06DEF04F089EF04F020511F0B0009C4
:1008E000D8A475EF04F077EF04F089EF04F0418E9F
:1008F000030E2119D8A47FEF04F081EF04F086EFF6
:1009000004F0010E0001716F89EF04F0000E000188
:10091000716F04012251D8A490EF04F092EF04F01B
:100920000CEF06F020511F0B020AD8A49AEF04F036
:100930009CEF04F00CEF06F024510F0B0009D8B423
:10094000A4EF04F0A6EF04F00CEF06F024510F0B17
:10095000156E020E1560AFEF04F0B1EF04F00CEF6E
:1009600006F0200E5B18D8A4B8EF04F0BAEF04F03C
:100970000CEF06F0418E24BFC0EF04F0C2EF04F08C
:10098000DFEF04F024510F0B156E1550020D480EC9
:10099000F324D96E000EF420DA6EDECF1AF0DDCF2C
:1009A0001BF024510F0B156E166A4E0E1524D96ECE
:1009B000000E1620DA6EDF50196EFAEF04F02451A3
:1009C0000F0B156E1550020D440EF324D96E000E58
:1009D000F420DA6EDECF1AF0DDCF1BF024510F0BBE
:1009E000156E166A500E1524D96E000E1620DA6E9A
:1009F000DF50196E19B0FFEF04F001EF05F009EFB9
:100A000005F0FB0E1A141A6EFF0E1B141B6E0EEF70
:100A100005F0040E1A101A6E1B501B6E24BF13EF44
:100A200005F015EF05F026EF05F024510F0B156EBC
:100A30001550020D480EF324D96E000EF420DA6E24
:100A40001AC0DEFF1BC0DDFF35EF05F024510F0B90
:100A5000156E1550020D440EF324D96E000EF420CD
:100A6000DA6E1AC0DEFF1BC0DDFF030E2119D8A409
:100A70003CEF05F03EEF05F076EF05F01AC0D9FF28
:100A80001BC0DAFFDFAE47EF05F049EF05F068EF76
:100A900005F024BF4EEF05F050EF05F05DEF05F0D7
:100AA00024510F0B156E166A4E0E1524D96E000ECA
:100AB0001620DA6EDF8268EF05F024510F0B156EF9
:100AC000166A500E1524D96E000E1620DA6EDF82DB
:100AD0001AC0D9FF1BC0DAFF000EDB841AC0D9FF91
:100AE0001BC0DAFF000EDB8E0CEF06F0040E1A18A6
:100AF0001A6E1B501B6E1AC0D9FF1BC0DAFFDFAE87
:100B000084EF05F086EF05F0A2EF05F01AC0D9FFDB
:100B10001BC0DAFF7F0EDF161AC0D9FF1BC0DAFF39
:100B2000000EDB8C000E0E6E050E0D6E1AC00FF05F
:100B30001BC010F0000E126E020E116E95EC12F03A
:100B4000A8EF05F01AC0D9FF1BC0DAFF000EDB8C3E
:100B5000040E1A181A6E1B501B6E19B2B2EF05F074
:100B6000B4EF05F0BFEF05F01AC0D9FF1BC0DAFFE4
:100B7000DFAEBDEF05F0BFEF05F0F5EF05F00401C6
:100B800024BFC5EF05F0C7EF05F0D4EF05F0245101
:100B90000F0B156E166A4E0E1524D96E000E162018
:100BA000DA6EDF92DFEF05F024510F0B156E166A37
:100BB000500E1524D96E000E1620DA6EDF921AC080
:100BC000D9FF1BC0DAFF3B0EDF16000E0E6E050EBE
:100BD0000D6E1AC00FF01BC010F0000E126E020E48
:100BE000116E95EC12F0FBEF05F01AC0D9FF1BC097
:100BF000DAFF3B0EDF16040124510F0B156E166A47
:100C0000700E1524176E0F0E1620186E17C0D9FF20
:100C100018C0DAFFFE0EDF1612005B04D8A413EF33
:100C200006F015EF06F022EF06F06DBA1AEF06F0A7
:100C30001CEF06F022EF06F0000E686E69806988EE
:100C4000020E5B6E68A427EF06F029EF06F033EF83
:100C500006F069A42EEF06F030EF06F033EF06F051
:100C6000689412EC16F06DA238EF06F03AEF06F039
:100C70003DEF06F0A19A1EEF07F068A042EF06F0E4
:100C800044EF06F051EF06F069A049EF06F04BEF94
:100C900006F051EF06F09DEC0AF0A08A040E5B6EA0
:100CA000689068A856EF06F058EF06F061EF06F07E
:100CB00069A85DEF06F05FEF06F061EF06F067EC04
:100CC00016F068AC66EF06F068EF06F093EF06F0FA
:100CD00069AC6DEF06F06FEF06F07DEF06F0000EE9
:100CE0000E6E730E0D6E000E0F6E000E106E000E67
:100CF000126E010E116E95EC12F0689C33EC16F03A
:100D00005750D8B486EF06F088EF06F089EF06F06A
:100D100057065750D8A48FEF06F091EF06F093EFE7
:100D200006F0F6EC10F068AA98EF06F09AEF06F0DD
:100D3000A3EF06F069AA9FEF06F0A1EF06F0A3EF7C
:100D400006F0FAEC13F068A2A8EF06F0AAEF06F09E
:100D5000C0EF06F069A2AFEF06F0B1EF06F0C0EF0A
:100D600006F07F0E0E6E0D68000E0F6E000E106EF8
:100D7000000E126E010E116E95EC12F0000E6A6EEE
:100D8000040E5B60C6EF06F0C8EF06F0CBEF06F08E
:100D9000A19A1EEF07F069A6D0EF06F0D2EF06F099
:100DA0001DEF07F0000E1F6E68A6D9EF06F0DBEF0F
:100DB00006F01DEF07F06CCF5CF05C30E832E832F3
:100DC0000F0B586E68965CB4E8EF06F0EAEF06F099
:100DD000F3EF06F04E0E5824D96EDA6A000EDA22CE
:100DE000DF70FAEF06F0500E5824D96EDA6A000E62
:100DF000DA22DF705850D8A400EF07F002EF07F0B6
:100E000006EF07F0E2EC11F014EF07F0000E0E6EA3
:100E1000720E0D6E5C0E0F6E000E106E000E126ED6
:100E2000000E116E95EC12F01F2A030E1F641BEFCB
:100E300007F01DEF07F0D4EF06F0A19A12002AC0C8
:100E400034F02BC035F02E502F10D8A42AEF07F025
:100E50002CEF07F02EEF07F0D9EF07F034C0D9FFE1
:100E600035C0DAFF2CC0DFFF2E503424306E2F50F7
:100E70003520316EFF0E3024D96EFF0E3120DA6E30
:100E80002CC0DFFF2F5007E1030E2E5CD8B04BEFD4
:100E900007F04DEF07F04FEF07F0D9EF07F020EE26
:100EA00001F03450D9263550DA222CC0DFFF20EE75
:100EB00002F03450D9263550DA222CC0DFFF2E50F4
:100EC0003424306E2F503520316EFE0E3024D96E12
:100ED000FF0E3120DA6E2CC0DFFF2E503424306E2E
:100EE0002F503520316EFD0E3024D96EFF0E31208B
:100EF000DA6E2CC0DFFF2F5007E1070E2E5CD8B052
:100F000084EF07F086EF07F088EF07F0D9EF07F0DE
:100F100020EE03F03450D9263550DA222CC0DFFF02
:100F20002E503424306E2F503520316EFC0E30247C
:100F3000D96EFF0E3120DA6E2CC0DFFF2F5007E193
:100F4000090E2E5CD8B0A7EF07F0A9EF07F0ABEFC2
:100F500007F0D9EF07F034C030F035C031F0301E63
:100F6000311E304A312A030E3014326E336A325049
:100F700034263350352232502E5E33502F5AFC0E19
:100F80002E16FF0E2F16D0EF07F034C0D9FF35C054
:100F9000DAFF2CC0DFFF2E06D8A02F06344A352AF0
:100FA0002E502F10D8A4D7EF07F0D9EF07F0C5EFD8
:100FB00007F0120001C00BF002C00CF00550061043
:100FC000D8A4E5EF07F0E7EF07F0E9EF07F094EFBB
:100FD00008F00BC0D9FF0CC0DAFF03C0DFFF0550DB
:100FE0000B24076E06500C20086EFF0E0724D96EE6
:100FF000FF0E0820DA6E03C0DFFF065007E1030E84
:10100000055CD8B006EF08F008EF08F00AEF08F02A
:1010100094EF08F020EE01F00B50D9260C50DA22A4
:1010200003C0DFFF20EE02F00B50D9260C50DA226D
:1010300003C0DFFF05500B24076E06500C20086E1E
:10104000FE0E0724D96EFF0E0820DA6E03C0DFFF04
:1010500005500B24076E06500C20086EFD0E072469
:10106000D96EFF0E0820DA6E03C0DFFF065007E1DD
:10107000070E055CD8B03FEF08F041EF08F043EFF2
:1010800008F094EF08F020EE03F00B50D9260C5036
:10109000DA2203C0DFFF05500B24076E06500C2038
:1010A000086EFC0E0724D96EFF0E0820DA6E03C00E
:1010B000DFFF065007E1090E055CD8B062EF08F0CB
:1010C00064EF08F066EF08F094EF08F00BC007F04B
:1010D0000CC008F0071E081E074A082A030E071452
:1010E000096E0A6A09500B260A500C220950055E47
:1010F0000A50065AFC0E0516FF0E06168BEF08F076
:101100000BC0D9FF0CC0DAFF03C0DFFF0506D8A073
:1011100006060B4A0C2A05500610D8A492EF08F0D8
:1011200094EF08F080EF08F01200040120511F0B2B
:10113000E806D8B49EEF08F0A0EF08F0A2EF08F0A0
:1011400046EF09F02451D8B4A8EF08F0AAEF08F050
:10115000ACEF08F046EF09F0060E2119D8A4B3EF62
:1011600008F0B5EF08F0F0EF08F0D7EF08F05E04F4
:10117000D8A4BDEF08F0BFEF08F0F0EF08F07D0E47
:101180003E6E080E3F6E000E436E090E426EC00E9C
:10119000416EF0EF08F0940E3E6E080E3F6E000EAA
:1011A000436E1D0E426EC00E416EF0EF08F02351EB
:1011B000016E026A0250000AD8B4E1EF08F0F0EFC5
:1011C00008F00150210AD8B4B7EF08F0030AD8B4E8
:1011D000CBEF08F0010AD8B4F0EF08F0F0EF08F018
:1011E0002039E832030BE806D8B4F9EF08F0FBEF3A
:1011F00008F021EF09F046EF09F0730E3E6E000E85
:101200003F6E000E436E010E426EC10E416E46EF00
:1012100009F0800E416E23C473F046EF09F0720EA0
:101220003E6E000E3F6E000E436E010E426E810E4A
:10123000416E46EF09F0800E416E22C472F046EF17
:1012400009F02151016E026A0250000AD8B42BEF56
:1012500009F046EF09F00150010AD8B446EF09F051
:10126000030AD8B4FDEF08F0010AD8B40FEF09F073
:101270000A0AD8B446EF09F0030AD8B409EF09F016
:10128000010AD8B41BEF09F046EF09F01200800EF6
:1012900004012019D8A44FEF09F051EF09F0F6EF3F
:1012A00009F0C00E416EDDEF09F0B10E3E6E080E82
:1012B0003F6E000E436E120E426EF6EF09F02251A1
:1012C000D8A465EF09F067EF09F0A5EF09F0225106
:1012D000020D070EF324F66E080EF420F76E0900D7
:1012E000F5CF3EF00A00F5CF3FF0020E3E24016E2E
:1012F000000E3F20026E01C0F6FF02C0F7FFF86A41
:10130000070EF76403D00800F55005D0F6CFE1FFD3
:10131000F7CFE2FFE750426E030E3E24016E000E4F
:101320003F20026E01C0F6FF02C0F7FFF86A070E09
:10133000F76403D00800F55005D0F6CFE1FFF7CFF2
:10134000E2FFE750436EF6EF09F0000E416EF6EF54
:1013500009F0030E2261AFEF09F0B1EF09F0D5EF0C
:1013600009F02251020D010EF324F66E080EF4204E
:10137000F76E0900F5CF3EF00A00F5CF3FF03EC012
:10138000F6FF3FC0F7FFF86A070EF76403D00800C6
:10139000F55005D0F6CFE1FFF7CFE2FFE750016E41
:1013A0000150426E436AF6EF09F0000E416EF6EF0F
:1013B00009F0000E416EF6EF09F02351016E026A4A
:1013C0000250000AD8B4E7EF09F0D9EF09F0015054
:1013D000010AD8B455EF09F0030AD8B45FEF09F059
:1013E000010AD8B4A9EF09F0D9EF09F01200A09AC8
:1013F000000E6A6E000E686E000E706E710E2A6E20
:101400000F0E2B6E000E2D6E000E2C6E000E2F6E2A
:10141000010E2E6E1FEC07F0160E6F6E9F0E6B6E98
:101420007B0E696E000E0001746F7451040D000E86
:10143000F324D96E040EF420DA6EDE6ADE6ADE6A08
:10144000DD6A742B070E746528EF0AF02AEF0AF0A4
:1014500015EF0AF06D8C000E6E6E6D986D9C68969F
:10146000000E416E000E396E000E3B6E000E3A6E9D
:1014700068B63DEF0AF03FEF0AF02FEF0AF0010ED9
:1014800000016E6F010E6D6F000E6C6F000E6B6FC2
:10149000000E706F000E746F7451020D440EF32431
:1014A000D96E000EF420DA6E000EDE6E000EDD6ED8
:1014B0007451020D480EF324D96E000EF420DA6E3A
:1014C000000EDE6E000EDD6E500E7425D96EDA6AE7
:1014D000000EDA22000EDF6E4E0E7425D96EDA6A27
:1014E000000EDA22000EDF6E742B010E74657BEFA6
:1014F0000AF07DEF0AF04CEF0AF0080E446E040E7D
:10150000456E160E706E040E0401036F200E026FFE
:10151000080E016F040E006F008F000E5E6E000E4D
:101520000001606F000E616F000E626F000E636F4E
:10153000000E6A6F000E5B6E1200A09A000E6A6EBB
:10154000000E686E000E706E710E016E0F0E026E50
:10155000000E046E000E036E000E066E010E056E88
:10156000DAEC07F0160E6F6E9F0E6B6E7B0E696ED7
:10157000000E0D6E0D50040D000EF324D96E040EF6
:10158000F420DA6EDE6ADE6ADE6ADD6A0D2A070E94
:101590000D64CDEF0AF0CFEF0AF0BAEF0AF06D8CD0
:1015A000000E6E6E6D986D9C6896000E416E000E7A
:1015B000396E000E3B6E000E3A6E68B6E2EF0AF02E
:1015C000E4EF0AF0D4EF0AF0010E00016E6F010E95
:1015D0006D6F000E6C6F000E6B6F000E706F000E63
:1015E0000D6E0D50020D440EF324D96E000EF42042
:1015F000DA6E000EDE6E000EDD6E0D50020D480E2E
:10160000F324D96E000EF420DA6E000EDE6E000EAA
:10161000DD6E500E0D24D96EDA6A000EDA22000E4D
:10162000DF6E4E0E0D24D96EDA6A000EDA22000E3D
:10163000DF6E0D2A010E0D6420EF0BF022EF0BF090
:10164000F1EF0AF0080E446E040E456E160E706E31
:10165000040E0401036F200E026F080E016F040ECA
:10166000006F008F000E5E6E000E0001606F000EB6
:10167000616F000E626F000E636F000E6A6F000EE6
:101680005B6E12006D9841BE48EF0BF04AEF0BF015
:1016900091EF0BF039AE4FEF0BF051EF0BF065EF20
:1016A0000BF0020E596E00016B51D8A45AEF0BF0EB
:1016B0005CEF0BF05EEF0BF03EEC12F0000E000161
:1016C0006D6F000E6E6FE6EF0BF020EE01F05250E2
:1016D000D9265350DA22080EDF6E20EE02F0525067
:1016E000D9265350DA22200EDE6E040EDD6E52C073
:1016F000D9FF53C0DAFF0C0EDF6E52C0D9FF53C0C2
:10170000DAFF000EDB8E44C0D9FF45C0DAFF040EBD
:10171000DF6E44C0D9FF45C0DAFF000EDB8EE6EF76
:101720000BF0040120AF97EF0BF099EF0BF0B7EF40
:101730000BF0010E596E00016C51D8A4A2EF0BF012
:10174000A4EF0BF0A6EF0BF03EEC12F0000E000140
:101750006D6F000E6E6F5650D8A4B1EF0BF0B3EF63
:101760000BF0E6EF0BF0F6EC10F0E6EF0BF0020EEC
:10177000596E20EE01F05250D9265350DA22080E4D
:10178000DF6E20EE02F05250D9265350DA22200E9E
:10179000DE6E040EDD6E52C0D9FF53C0DAFF040EB8
:1017A000DF6E52C0D9FF53C0DAFF000EDB8E000E91
:1017B00000016D6F000E6E6F5650D8A4E2EF0BF073
:1017C000E4EF0BF0E6EF0BF0B3EF0BF0120020EEBE
:1017D00001F05450D9265550DA22DF50026E0250E3
:1017E0003A5C000E3B58D8B0F8EF0BF0FAEF0BF074
:1017F000FCEF0BF03AC002F002503A5E000E3B5A8A
:10180000000E016E13EF0CF0280E0124D96EDA6A77
:10181000040EDA2236C0E1FF37C0E2FFDFCFE7FF78
:10182000364A372A012A0250015CD8A01AEF0CF080
:101830001CEF0CF004EF0CF03A503B10D8B423EF3F
:101840000CF025EF0CF05EEF0CF020EE01F05250A2
:10185000D9265350DA22080EDF6E20EE02F05250E5
:10186000D9265350DA22280EDE6E040EDD6E54C0E7
:10187000D9FF55C0DAFFDFBC40EF0CF042EF0CF0AF
:1018800050EF0CF052C0D9FF53C0DAFF480EDF6EA4
:1018900052C0D9FF53C0DAFF000EDB8E87EF0CF089
:1018A00052C0D9FF53C0DAFF080EDF6E52C0D9FF15
:1018B00053C0DAFF000EDB8E87EF0CF020EE01F054
:1018C0005250D9265350DA22080EDF6E20EE02F075
:1018D0005250D9265350DA22200EDE6E040EDD6EF1
:1018E00052C0D9FF53C0DAFF040EDF6E52C0D9FFD9
:1018F00053C0DAFF000EDB8E399E5650D8A483EF1A
:101900000CF085EF0CF087EF0CF0F6EC10F0120005
:10191000326E2A50D8B48FEF0CF091EF0CF09FEF9D
:101920000CF03250020D440EF324D96E000EF42058
:10193000DA6EDECF33F0DDCF34F0ABEF0CF03250A7
:10194000020D480EF324D96E000EF420DA6EDECFBD
:1019500033F0DDCF34F033503410D8A4B2EF0CF0B4
:10196000B4EF0CF0BAEF0CF0000E2A6E000E2B6EE6
:1019700026EF0DF020EE02F03350D9263450DA2253
:101980002BC0DEFF2CC0DDFF20EE01F03350D92646
:101990003450DA222DC0DFFF33C0D9FF34C0DAFF64
:1019A000400EDF1633C0D9FF34C0DAFF000EDB86ED
:1019B00033C0D9FF34C0DAFF000EDB8E2A50D8B412
:1019C000E4EF0CF0E6EF0CF005EF0DF03250020DF5
:1019D000440EF324D96E000EF420DA6EDECF2EF022
:1019E000DDCF2FF0040E2E18306E2F50316E325096
:1019F000020D440EF324D96E000EF420DA6E30C0CE
:101A0000DEFF31C0DDFF22EF0DF03250020D480E37
:101A1000F324D96E000EF420DA6EDECF2EF0DDCF87
:101A20002FF0040E2E18306E2F50316E3250020DF2
:101A3000480EF324D96E000EF420DA6E30C0DEFFBB
:101A400031C0DDFF33C02AF034C02BF01200096E24
:101A50000150D8B42EEF0DF030EF0DF03EEF0DF049
:101A60000950020D440EF324D96E000EF420DA6EF4
:101A7000DECF0AF0DDCF0BF04AEF0DF00950020D7A
:101A8000480EF324D96E000EF420DA6EDECF0AF091
:101A9000DDCF0BF00A500B10D8A451EF0DF053EF2F
:101AA0000DF059EF0DF0000E016E000E026EC5EF45
:101AB0000DF020EE02F00A50D9260B50DA2202C0B7
:101AC000DEFF03C0DDFF20EE01F00A50D9260B50E7
:101AD000DA2204C0DFFF0AC0D9FF0BC0DAFF400ED4
:101AE000DF160AC0D9FF0BC0DAFF000EDB860AC082
:101AF000D9FF0BC0DAFF000EDB8E0150D8B483EFA4
:101B00000DF085EF0DF0A4EF0DF00950020D440E1D
:101B1000F324D96E000EF420DA6EDECF05F0DDCFAF
:101B200006F0040E0518076E0650086E0950020DE7
:101B3000440EF324D96E000EF420DA6E07C0DEFFE7
:101B400008C0DDFFC1EF0DF00950020D480EF3246F
:101B5000D96E000EF420DA6EDECF05F0DDCF06F090
:101B6000040E0518076E0650086E0950020D480E47
:101B7000F324D96E000EF420DA6E07C0DEFF08C031
:101B8000DDFF0AC001F00BC002F01200200E5B6006
:101B9000CCEF0DF0CEEF0DF0D0EF0DF056EF0EF0D4
:101BA0006DA2D5EF0DF0D7EF0DF0D9EF0DF056EF98
:101BB0000EF0000166516711D8B4E1EF0DF0E3EFCC
:101BC0000DF030EF0EF066C0D9FF67C0DAFFDFBE60
:101BD000ECEF0DF0EEEF0DF056EF0EF030EF0EF0F3
:101BE000020E19EC15F047EF0EF064516511D8B4F0
:101BF000FCEF0DF0FEEF0DF009EF0EF064C0D9FF21
:101C000065C0DAFFDFBE07EF0EF009EF0EF047EF19
:101C10000EF0810E0501406F010EC4EC13F00009B7
:101C2000D8A415EF0EF017EF0EF01CEF0EF0010E1A
:101C30000501416F1FEF0EF0000E0501416F010E0F
:101C40002A6E400E2B6E050E2C6E400E2D6E010E70
:101C500088EC0CF02AC064F02BC065F047EF0EF062
:101C6000050100510001746F756B7551000AD8B4FD
:101C70003CEF0EF047EF0EF07451800AD8B4F0EF4D
:101C80000DF0010AD8B4F5EF0DF047EF0EF0000E9D
:101C90002A6E000E2B6E050E2C6E400E2D6E010E60
:101CA00088EC0CF02AC066F02BC067F0120004012B
:101CB0002039E832030B0009D8B461EF0EF063EF6E
:101CC0000EF0ABEF0EF0E4EF0EF0418E080E5B6EFF
:101CD000E4EF0EF047EC09F0E4EF0EF06FEC11F0DA
:101CE000E4EF0EF05E0E3E6E000E3F6E4180010E80
:101CF000426E418EE4EF0EF0E5EC0EF0E4EF0EF0F4
:101D000064EC04F0E4EF0EF05D0E24253E6E3F6AB5
:101D1000000E3F224180010E426E418EE4EF0EF034
:101D2000418E5D0E2425D96EDA6A000EDA2222C4B5
:101D3000DFFFE4EF0EF0000E0E6E020E0D6E000ED1
:101D40000F6E000E106E000E126E000E116E95ECEE
:101D500012F0E4EF0EF021511C6E1D6A1D50000AB6
:101D6000D8B4B5EF0EF0E4EF0EF01C50000AD8B472
:101D70007CEF0EF0010AD8B480EF0EF0020AD8B45E
:101D800080EF0EF0060AD8B465EF0EF0030AD8B45F
:101D90006AEF0EF0010AD8B49BEF0EF00F0AD8B428
:101DA00072EF0EF0010AD8B46EEF0EF0030AD8B449
:101DB00084EF0EF0010AD8B490EF0EF0070AD8B401
:101DC000E4EF0EF0E4EF0EF01200000E0401286FB5
:101DD000000E296F49EF0FF0418E00017105D8A464
:101DE000F4EF0EF0F6EF0EF063EF0FF0040128832E
:101DF00063EF0FF0418E63EF0FF0418E24510F0B14
:101E00000009D8B406EF0FF008EF0FF063EF0FF002
:101E100024BF0DEF0FF00FEF0FF020EF0FF0245164
:101E20000F0B016E0150020D480EF324D96E000E07
:101E3000F420DA6EDECF03F0DDCF04F02FEF0FF0E9
:101E400024510F0B016E0150020D440EF324D96E84
:101E5000000EF420DA6EDECF03F0DDCF04F003C015
:101E6000D9FF04C0DAFFDFAE38EF0FF03AEF0FF022
:101E700063EF0FF003C0D9FF04C0DAFFDFA443EF24
:101E80000FF045EF0FF063EF0FF0010E286F63EFD7
:101E90000FF020511F0B016E026A0250000AD8B4E5
:101EA00054EF0FF063EF0FF00150000AD8B4ECEFDD
:101EB0000EF0010AD8B4FAEF0EF0030AD8B4FDEF21
:101EC0000EF063EF0FF041AE68EF0FF06AEF0FF026
:101ED00071EF0FF0280E3E6E040E3F6E4180020E31
:101EE000426E1200080E016E435007E1080E425C7C
:101EF000D8B07DEF0FF07FEF0FF097EF0FF042C0FB
:101F000001F05A50D8A487EF0FF089EF0FF08DEF52
:101F10000FF0010E5A6E97EF0FF05A04D8A493EF0A
:101F20000FF095EF0FF097EF0FF0020E5A6E015081
:101F3000425E000E435A20EE01F04450D92645502F
:101F4000DA2201C0DFFF280E0001686F040E696FFE
:101F500041B0ADEF0FF0AFEF0FF0F1EF0FF0CCEFBE
:101F60000FF03EC0F6FF3FC0F7FFF86A68C0D9FF28
:101F700069C0DAFF070EF76403D00800F55005D0FA
:101F8000F6CFE1FFF7CFE2FFE750DF6E3E4A3F2A90
:101F90000001684B692B01060150D8A4D2EF0FF065
:101FA000D4EF0FF0B1EF0FF0F9EF0FF03EC0F6FFF6
:101FB0003FC0F7FFF86A68C0D9FF69C0DAFF070EB3
:101FC000F76403D00800F55005D0F6CFE1FFF7CF56
:101FD000E2FFE750DF6E3E4A3F2A0001684B692B63
:101FE00001060150D8A4F7EF0FF0F9EF0FF0D6EF8C
:101FF0000FF0120044C0D9FF45C0DAFF000EDFBC6D
:10200000010E026E040E4418446E4550456E080ED3
:102010005B18D8A40EEF10F010EF10F022EF10F0C4
:10202000040122517F0B6E6E6E50D8B41AEF10F07F
:102030001CEF10F020EF10F0100E5B6E22EF10F08E
:10204000040E5B6E5904D8A428EF10F02AEF10F0AC
:1020500071EF10F020EE02F04450D9264550DA22FC
:10206000280EDE6E040EDD6E72EC0FF0020E5A18B2
:10207000D8A43DEF10F03FEF10F04DEF10F044C04A
:10208000D9FF45C0DAFF040EDF6E44C0D9FF45C05A
:10209000DAFF000EDB8E7BEF10F00250D8A453EF76
:1020A00010F055EF10F063EF10F044C0D9FF45C0B9
:1020B000DAFF480EDF6E44C0D9FF45C0DAFF000EDC
:1020C000DB8E7BEF10F044C0D9FF45C0DAFF080E6D
:1020D000DF6E44C0D9FF45C0DAFF000EDB8E7BEF18
:1020E00010F039AE76EF10F078EF10F079EF10F0D5
:1020F000399E000E596E12006DA281EF10F083EF31
:1021000010F0E2EF10F0010E85EC15F0F5EF10F095
:102110004C044D10D8A48FEF10F091EF10F096EF13
:1021200010F0010E61EC15F0F3EF10F04B0E4C18AF
:102130004D10D8A49EEF10F0A0EF10F0A5EF10F016
:10214000010E85EC15F0F3EF10F04D5009E1970EFC
:102150004C5CD8A0AEEF10F0B0EF10F0B6EF10F07E
:10216000000E4D6E000E4C6EF3EF10F0F3EF10F01A
:102170004C044D10D8A4BFEF10F0C1EF10F0C6EF23
:1021800010F0010E61EC15F0F3EF10F0320E4C1868
:102190004D10D8A4CEEF10F0D0EF10F0D5EF10F026
:1021A000010E85EC15F0F3EF10F0B70E4C5C030E4A
:1021B0004D58D8A0DEEF10F0E0EF10F0F3EF10F084
:1021C000B0EF10F05B50046E056A0550000AD8B4F9
:1021D000ECEF10F0B8EF10F00450200AD8B488EFFC
:1021E00010F0B8EF10F04C4A4D2A120000016E5169
:1021F000D8A4FDEF10F0FFEF10F06EEF11F0010E1C
:102200006E6F6D51D8A407EF11F009EF11F06EEF6A
:1022100011F0010E6D6F020E5918D8A412EF11F0D3
:1022200014EF11F02AEF11F020EE01F04450D926FE
:102230004550DA22000EDF6E44C0D9FF45C0DAFFF8
:10224000480EDF6E44C0D9FF45C0DAFF000EDB8EBA
:102250006EEF11F05904D8A430EF11F032EF11F005
:102260006EEF11F0000E6F6F20EE01F05450D92682
:102270005550DA22080EDF6E20EE02F05450D926B7
:102280005550DA22200EDE6E040EDD6E54C0D9FFEA
:1022900055C0DAFF040EDF6E54C0D9FF55C0DAFF17
:1022A000000EDB8E010E6F6F20EE01F05250D9262A
:1022B0005350DA22080EDF6E20EE02F05250D9267B
:1022C0005350DA22200EDE6E040EDD6E52C0D9FFAE
:1022D00053C0DAFF800EDF6E6EEF11F01200418EF8
:1022E000710E016E0F0E026E000E046E000E036E74
:1022F000000E066E010E056EDAEC07F0000E016EA0
:10230000040E026E000E046E000E036E000E066ECA
:10231000200E056EDAEC07F06D8C000E156E500E77
:102320001524D96EDA6A000EDA22000EDF6E4E0E28
:102330001524D96EDA6A000EDA22000EDF6E152A35
:10234000010E1564A6EF11F0A8EF11F08FEF11F058
:102350005D0E016E000E026E000E046E000E036E26
:10236000000E066E010E056EDAEC07F06D9C080E8D
:10237000446E040E456E000E546E040E556E54C02D
:1023800052F055C053F022C45EF05E50D8A4CBEF9B
:1023900011F0CDEF11F0D1EF11F0100E5B6EE1EF07
:1023A00011F0000E0E6E010E0D6E5E0E0F6E000E21
:1023B000106E000E126E010E116E95EC12F0200ED2
:1023C0005B6E12002D0E576E5CC01EF0FD0E1E16C9
:1023D000D8A4EDEF11F0EFEF11F031EF12F05CC087
:1023E0001EF0D8901E323F0E1E161E50040D000E19
:1023F000F324546E040EF420556E54C052F055C0B0
:1024000053F0040E5218526E5350536E54C0D9FFFD
:1024100055C0DAFFDF30E8320F0B0D0AD8A413EFF6
:1024200012F015EF12F02DEF12F0200E016E040ED7
:10243000026E20EE02F05450D9265550DA22DECF3B
:1024400003F0DDCF04F0000E066E080E056E7FEC83
:1024500014F041EC13F03DEF12F089EC13F03DEF76
:1024600012F05C50FD0B040AD8A439EF12F03BEFD8
:1024700012F03DEF12F0FAEC0FF01200000E000126
:102480006C6F000E6B6F020E5918D8A44AEF12F051
:102490004CEF12F06CEF12F020EE01F05250D92602
:1024A0005350DA22080EDF6E20EE02F05250D92689
:1024B0005350DA22280EDE6E040EDD6E52C0D9FFB4
:1024C00053C0DAFF480EDF6E52C0D9FF53C0DAFFA7
:1024D000000EDB8E94EF12F042500401265D435053
:1024E0002759D8B076EF12F078EF12F07CEF12F0A7
:1024F00026C442F027C443F072EC0FF020EE02F045
:102500004450D9264550DA22280EDE6E040EDD6EC8
:1025100044C0D9FF45C0DAFF480EDF6E44C0D9FF82
:1025200045C0DAFF000EDB8E1200B1EF12F07CEC3A
:1025300010F0EAEF12F07CEC10F0010EA7EC14F0B2
:10254000EAEF12F07CEC10F0020EA7EC14F0EAEFC8
:1025500012F04DEC16F0EAEF12F095EC08F0EAEF0D
:1025600012F00DC013F00EC014F01450000AD8B4CD
:10257000C0EF12F07F0AD8B4E3EF12F0EAEF12F0E6
:102580001350010AD8B4A9EF12F0030AD8B4EAEF45
:1025900012F0010AD8B4ADEF12F0060AD8B4EAEF8F
:1025A00012F0770AD8B4EAEF12F0010AD8B497EF24
:1025B00012F0070AD8B4A2EF12F0010AD8B49BEFC8
:1025C00012F0EAEF12F01350FF0AD8B4EAEF12F05B
:1025D000EAEF12F01200066E000E076E040E086E8F
:1025E0000150026E036AD890023603360650046E1C
:1025F000056AD89004360536D89004360536025060
:10260000042603500522D89004360536D8900436A7
:102610000536045007260550082207C0D9FF08C018
:10262000DAFFDF9E0150D8A418EF13F01AEF13F071
:1026300028EF13F00650020D480EF324D96E000E59
:10264000F420DA6E07C0DEFF08C0DDFF34EF13F0C0
:102650000650020D440EF324D96E000EF420DA6EFB
:1026600007C0DEFF08C0DDFF07C0D9FF08C0DAFFE2
:10267000DF9C20EE04F00750D9260850DA22DF8CC8
:102680001200000E5A6E000E566E000E00016C6FA6
:10269000000E6B6F000E6F6F000E596E44C0D9FFB5
:1026A00045C0DAFF7F0EDF16040E4418446E455015
:1026B000456E44C0D9FF45C0DAFF7F0EDF16040E19
:1026C0004418446E4550456E52C0D9FF53C0DAFFDE
:1026D0007F0EDF16000E416E000E436E000E426E3E
:1026E000000E396E000E3B6E000E3A6E57EC0EF087
:1026F000000E0E6E030E0D6E000E0F6E000E106EAD
:10270000000E126E000E116E95EC12F042EC0BF002
:102710001200020E5918D8A490EF13F092EF13F0A4
:1027200096EF13F0E7EC0BF0C3EF13F0000E596EC9
:1027300000016F51D8A49FEF13F0A1EF13F0C1EF88
:1027400013F020EE01F05250D9265350DA22080E31
:10275000DF6E20EE02F05250D9265350DA22200EBE
:10276000DE6E040EDD6E52C0D9FF53C0DAFF0C0ED0
:10277000DF6E52C0D9FF53C0DAFF000EDB8EC3EF0D
:1027800013F0000E6F6F12002C6EE0EF13F081A8B3
:10279000CCEF13F0CFEF13F0010ED0EF13F0000EDB
:1027A000F9EF13F081AAD7EF13F0DAEF13F0010E6F
:1027B000DBEF13F0000EF9EF13F0000EF9EF13F05A
:1027C0002C502A6E2B6A2B50000AD8B4EAEF13F073
:1027D000DDEF13F02A50000AD8B4DDEF13F0010A40
:1027E000D8B4C7EF13F0030AD8B4D2EF13F0DDEF7B
:1027F00013F0120070A0FFEF13F001EF14F028EFB8
:1028000014F054C0D9FF55C0DAFF800EDE18D8A4EA
:102810000CEF14F00EEF14F027EF14F044C0D9FFC2
:1028200045C0DAFF840EDE18D8A419EF14F01BEFB0
:1028300014F027EF14F054C0D9FF55C0DAFF0C0E86
:10284000DF6E54C0D9FF55C0DAFF000EDB8E7090EA
:10285000689A12000600E1CF20F0E2CF21F0D9CF34
:1028600022F0DACF23F0F3CF24F0F4CF25F0F6CF27
:1028700026F0F7CF27F0F8CF28F0F5CF29F00DECB0
:1028800006F029C0F5FF28C0F8FF27C0F7FF26C0D3
:10289000F6FF25C0F4FF24C0F3FF23C0DAFF22C0F7
:1028A000D9FF21C0E2FF20C0E1FF5F9211002F6E2F
:1028B00065EF14F0010EF5EC14F0020EF5EC14F0D7
:1028C000010ECCEC15F07EEF14F02F502D6E2E6A19
:1028D0002E50000AD8B46FEF14F07EEF14F02D5094
:1028E000000AD8B45AEF14F0010AD8B47EEF14F0FD
:1028F000030AD8B47EEF14F07EEF14F0120003C088
:1029000009F004C00AF001C007F002C008F099EF16
:1029100014F009C0D9FF0AC0DAFFDF500B6E094A74
:102920000A2A07C0D9FF08C0DAFF0BC0DFFF074A39
:10293000082A0506D8A00606052806E10628D8A418
:10294000A4EF14F0A6EF14F089EF14F01200066E55
:10295000B5EF14F0010E3DEC15F0020E3DEC15F054
:10296000010EEFEC15F0CEEF14F00650046E056A80
:102970000550000AD8B4BFEF14F0CEEF14F00450A5
:10298000000AD8B4AAEF14F0010AD8B4CEEF14F0BC
:10299000030AD8B4CEEF14F0CEEF14F012000C6E90
:1029A00009A4D5EF14F0D7EF14F0DCEF14F0000E0B
:1029B000016E0C50EBEC12F009A2E1EF14F0E3EF22
:1029C00014F0E8EF14F0010E016E0C50EBEC12F075
:1029D000700E0C240A6E0B6A0F0E0B220AC0D9FF70
:1029E0000BC0DAFF09C0DFFF12002C6EFFEF14F0FE
:1029F000929018EF15F09294949418EF15F02C50D3
:102A00002A6E2B6A2B50000AD8B409EF15F018EF84
:102A100015F02A50000AD8B418EF15F0010AD8B4FE
:102A2000F8EF14F0030AD8B4FBEF14F018EF15F028
:102A300012002C6E23EF15F089703CEF15F08974AD
:102A40008B743CEF15F02C502A6E2B6A2B50000A29
:102A5000D8B42DEF15F03CEF15F02A50000AD8B489
:102A60003CEF15F0010AD8B41CEF15F0030AD8B4F6
:102A70001FEF15F03CEF15F01200036E47EF15F055
:102A8000929060EF15F09294949460EF15F00350DB
:102A9000016E026A0250000AD8B451EF15F060EFDF
:102AA00015F00150000AD8B460EF15F0010AD8B44F
:102AB00040EF15F0030AD8B443EF15F060EF15F0BE
:102AC0001200036E6BEF15F0898084EF15F0898496
:102AD0008B8484EF15F00350016E026A0250000AE5
:102AE000D8B475EF15F084EF15F00150000AD8B492
:102AF00084EF15F0010AD8B464EF15F0030AD8B4D6
:102B000067EF15F084EF15F01200036E8FEF15F0EC
:102B10008990A8EF15F089948B94A8EF15F00350D5
:102B2000016E026A0250000AD8B499EF15F0A8EFBE
:102B300015F00150000AD8B4A8EF15F0010AD8B476
:102B400088EF15F0030AD8B48BEF15F0A8EF15F055
:102B500012005B50D8A4AFEF15F0B1EF15F0CBEF3A
:102B600015F0000E6D6E000E696E160E6F6E9F0EE4
:102B70006B6E7B0E696ED08EA28AA08AF28EC2EF37
:102B800015F06D866DA6C7EF15F0C9EF15F0C1EF12
:102B900015F0010E5B6E12002C6ED5EF15F09388C8
:102BA000EEEF15F0938AEEEF15F02C502A6E2B6A9B
:102BB0002B50000AD8B4DFEF15F0EEEF15F02A50D5
:102BC000000AD8B4EEEF15F0010AD8B4CFEF15F033
:102BD000030AD8B4D2EF15F0EEEF15F01200036E31
:102BE000F8EF15F0938811EF16F0938A11EF16F0B5
:102BF0000350016E026A0250000AD8B402EF16F0C8
:102C000011EF16F00150000AD8B411EF16F0010AC6
:102C1000D8B4F2EF15F0030AD8B4F5EF15F011EFC0
:102C200016F01200000E0001706F000E0E6E740E92
:102C30000D6E000E0F6E000E106E000E126E000E66
:102C4000116E95EC12F06D92699428EF16F068946D
:102C500068B42DEF16F02FEF16F027EF16F0000EE8
:102C600000016A6F1200010E00016027000E61234F
:102C7000622363237051D8A440EF16F042EF16F0A0
:102C80004CEF16F06A2B6A51D8A449EF16F04BEFBF
:102C900016F04CEF16F06A691200000E0001646F26
:102CA000000E656F1E0E096E010ECFEC14F0000EC3
:102CB000016E000E026E050E036E400E046E010ED4
:102CC00027EC0DF001C066F002C067F012006984C5
:102CD00068986D82010E0001706F000E6A6F000E21
:102CE0000E6E750E0D6E000E0F6E000E106E000E45
:102CF000126E000E116E95EC12F0120000EE60F0F4
:102D0000140EEE6AE806FDE100EE36F0290EEE6ADA
:102D1000E806FDE15F905F92000EF86E000191EF12
:102D200016F0000E57EC14F0F7EC09F0A9EC15F0D2
:0C2D3000C6EC0DF098EF16F007EF00F075
:020000040020DA
:08000000FFFFFFFFFFFFFFFF00
:020000040030CA
:0E000000240E3F1EFF8181FF0FC00FE00F4056
:00000001FF
