:1000000080EF31F00000000000EF00F00000000081
:0A0010000000000000000000F3D71C
:0462FC00000012008C
:10630000D5EC3FF0B5EC3EF0000E00019F6F050E9E
:10631000A06F400EA16F050EA26FA0EC3EF033EC13
:106320003FF0005206E19EEC3EF0D4EC3DF0E6DF9B
:0863300002D0BDEC3EF0FFD7E6
:10633800000E056E040E066EC1C003F0000E046E5A
:10634800033604360390033604360390C2C000F0C7
:10635800000E016E003601360090005003260150F1
:10636800042203C001F004C002F001360190023695
:1063780001360190023601C003F002C004F0043275
:106388000332049E04BC048E04320332049E04BC0F
:10639800048E03C000F004C001F0003600900136FE
:1063A800003600900136055000260650012200C034
:1063B80005F001C006F000C0E1FF01C0E2FFE69E63
:1063C8000001C251000A12E1C1C000F0000E016EC6
:1063D800003600900136610E0024E16E000E0120A7
:1063E800E26E05C0E6FF06C0E6FF11D0C1C000F0AE
:1063F800000E016E003600900136780E0024E16E22
:10640800000E0120E26E05C0E6FF06C0E6FF05C0EB
:10641800E1FF06C0E2FFE69C040E0524E16E000ED3
:086428000620E26EE68C120072
:0E643000800E0001C111006E00C069F0120064
:10643E00C1C066F0C2C067F0C3C06AF0C4C06BF0E2
:10644E00800E0001C511006E008000C069F01200C0
:10645E00C1C066F0C2C067F0C3C068F0C4C06AF0C5
:10646E00C5C06BF0800E0001C611006E00C069F051
:02647E0012000A
:1064800020C401F01F0E01160150010A01E08BD05B
:1064900004012451000A01E086D02151060A38E1A6
:1064A0002DD000018851010A12E1FB0EC16F7E0E52
:1064B000C26F000EC36F120EC127000EC223C3238A
:1064C000090EC46F000EC56F400EC66FC8DF20D026
:1064D00000018851010A0DE16C0EC16F7F0EC26F81
:1064E000000EC36F210EC46F000EC56F400EC66F45
:1064F000B6DF0ED00001C16B9BDF0AD0040123512F
:10650000210ACFE02351220AE3E02351230AF2E0DB
:1065100020C401F0600E0116050E006E005004E06C
:106520000132019EFF0FFBD70150010A01E03BD071
:1065300027D039D038D0940E0001C16F000EC26F41
:10654000010EC36F000EC46F400EC56F78DF2BD0F5
:106550000001C16B6DDF23C494F025D00001900EC3
:10656000C16F000EC26F010EC36F000EC46FC56B0A
:1065700066DF19D00001C16B5BDF22C490F013D03D
:1065800004012151010AD5E02151090AD3E021512A
:10659000020AD1E021510A0ADBE02151030ADEE0C0
:0865A00021510B0AE7E0120093
:1065A800700EE16E0F0EE26E0001BC51E126D8B00C
:1065B800E22ABDC0E6FFBDA504D0BCC0C1F0C26BD5
:1065C800B7DEBDA305D0BCC0C1F0010EC26FB0DEFE
:0265D8001200AF
:1065DA000001BD51000A12E0BCC000F0000E016EBD
:1065EA00003600900136780E0024E96E000E012074
:1065FA00EA6EEECF04F0EECF05F011D0BCC000F089
:10660A00000E016E003600900136610E0024E96E1C
:10661A00000E0120EA6EEECF04F0EECF05F0020E76
:10662A000424E16E000E0520E26EBEC0E6FFBFC084
:10663A00E6FF010E0424E16E000E0520E26EC0C0E2
:10664A00E6FF04C0E9FF05C0EAFFEECF00F004C090
:10665A00E1FF05C0E2FF400E0014E66E04C0E9FF48
:10666A0005C0EAFFEECF00F004C0E1FF05C0E2FF7B
:10667A00880E0010E66EBD51000A1BE0BCC000F097
:10668A00000E016E003600900136780E0024026E6C
:10669A00000E0120036E02C0E9FF03C0EAFF040EE8
:1066AA00EE18006E02C0E1FF03C0E2FF00C0E6FF81
:1066BA001AD0BCC000F0000E016E00360090013600
:1066CA00610E0024026E000E0120036E02C0E9FF73
:1066DA0003C0EAFF040EEE18006E02C0E1FF03C019
:1066EA00E2FF00C0E6FF04C000F005C001F012009E
:1066FA0000018F5314E0010EBC6F1E0EBD6F4FDFF9
:10670A00010EBC6FBD6B96C0BEF097C0BFF0400EC5
:10671A00C06F5EDF00C09BF001C09CF013D0010E79
:10672A00BC6F1E0EBD6F3BDF010EBC6FBD6B96C00A
:10673A00BEF097C0BFF0400EC06F4ADF00C09BF0AA
:06674A0001C09CF01200EA
:0A67500000018F5301E094DE1200F7
:10675A00B6C002F0B7C003F0B9C000F0BAC001F089
:10676A00010E0001B95F000EBA5B0050011009E08A
:10677A0002C0E1FF03C0E2FFB8C0E6FF024A032AF3
:04678A00EBD7120037
:10678E000CD0B4DF3CD03BD0DCDF39D038D037D0A2
:10679E0036D035D0000033D032D0000E0001B719FC
:1067AE0002E1010EB619EDE0000EB71902E1020E7C
:1067BE00B619E9E0000EB71902E1030EB619E4E0CE
:1067CE00B751000A02E1730EB619E0E0B751000AA4
:1067DE0002E1750EB619DBE0B751000A02E1740E44
:1067EE00B619D6E0B7513F0A02E1FF0EB619D1E055
:1067FE00B751000A02E1720EB619CCE0CDD7010EE8
:04680E00006E120006
:106812000B6A0A6A096A00500402F4CF09F0F3CF46
:1068220008F001500502F4CF0BF0F3CF0AF000504C
:106832000502F3500926F4500A22E86A0B2201509D
:106842000402F3500926F4500A22E86A0B2208C017
:1068520000F009C001F00AC002F00BC003F0120000
:1068620004012251010A13E120C401F01F0E011696
:106872000150000A0CE10001698F04012151030A51
:1068820004E1010E0001606F02D00001606B04019F
:106892002251000AD8A48DD020C401F01F0E011687
:1068A2000150020AD8A485D024C401F00F0E0116AB
:1068B2000150000AD8B47DD00001698F040124BFC1
:1068C20016D024C403F00F0E031603C000F0000E0E
:1068D200016E003600900136610E0024E96E000E52
:1068E2000120EA6EEECF04F0EECF05F015D024C4FD
:1068F20003F00F0E031603C000F0000E016E003607
:1069020000900136780E0024E96E000E0120EA6E36
:10691200EECF04F0EECF05F02151030A07E104C0E7
:10692200E1FF05C0E2FF840EE66E43D024C400F00E
:106932000F0E0016700E026E0F0E036E005002262E
:10694200D8B0032A02C0E9FF03C0EAFFFE0EEE142C
:10695200006EEECF01F0FF0E011602C0E1FF03C090
:10696200E2FF00C0E6FF01C0E6FF24AF11D004C081
:10697200E1FF05C0E2FFE66A040E0418006E00C0E3
:1069820004F004C0E1FF05C0E2FF400EE66E11D044
:1069920004C0E1FF05C0E2FF880EE66E040E041893
:1069A200006E00C004F004C0E1FF05C0E2FFC80EA3
:0469B200E66E12007B
:1069B600000E00016B5D02E1080E6A5D10E26AC01E
:1069C60003F06BC004F09551000A03E1010E956FC8
:1069D60005D09551010A02E1020E956F04D0080E0A
:1069E600036E000E046E78C0E1FF79C0E2FFE69206
:1069F60078C0E1FF79C0E2FFE69078C0E9FF79C090
:106A0600EAFFEECF00F078C0E1FF79C0E2FF045064
:106A16000010E66E010E7825E16E000E7921E26E19
:106A260003C0E6FF03506A5D006E04506B59016EA9
:106A360000C06AF001C06BF0280E986F040E996FC3
:106A460069B12FD0035004102BE066C0F6FF67C073
:106A5600F7FF68C0F8FF0900F5CF00F098C0E1FF26
:106A660099C0E2FF00C0E6FF984B992B010E662500
:106A7600006E000E6721016E000E6821026E00C0D6
:106A860066F001C067F002C068F0010E035C006E9C
:106A9600000E0458016E00C003F001C004F0D2D706
:106AA60024D00350041021E066C0E9FF67C0EAFF66
:106AB60098C0E1FF99C0E2FFEECFE6FF984B992B15
:106AC600010E6625006E000E6721016E00C066F09D
:106AD60001C067F0010E035C006E000E0458016EE3
:0C6AE60000C003F001C004F0DCD7120077
:106AF2000401286B296B4AD00001698F04012881A7
:106B020000016051010A02E10401288354D000010E
:106B1200698F51D00001698F040124BF16D024C4AB
:106B220003F00F0E031603C000F0000E016E0036D4
:106B320000900136610E0024E96E000E0120EA6E1B
:106B4200EECF04F0EECF05F015D024C403F00F0E03
:106B5200031603C000F0000E016E003600900136ED
:106B6200780E0024E96E000E0120EA6EEECF04F0EA
:106B7200EECF05F004C0E9FF05C0EAFFEECF01F059
:106B820001A403D00401010E286F15D020C401F026
:106B92001F0E01160150000AAFE020C401F01F0EC3
:106BA20001160150010AB3E020C401F01F0E0116C4
:106BB2000150020AAFE0000169AF07D0280E666FEC
:0C6BC200040E676F6981020E6A6F1200FA
:106BCE000001698F710EB66F0F0EB76FB86B010EA5
:106BDE00B96F000EBA6FBADD910EB66F000EB76FB9
:106BEE00B86B010EB96F000EBA6FB0DD22C488F01B
:106BFE008851000A03E1100E9A6F0FD0200E9A6F83
:106C0E00010EB66F000EB76F880EB86F000EB96F1B
:0C6C1E00010EBA6F000EBB6FB3DD120058
:106C2A0004012051800AD8A478D0C00E0001696FEF
:106C3A0069D000018D0E006E7F0E016E000E026E8D
:106C4A0000C066F001C067F002C068F0120E6A6FF9
:106C5A00000E6B6F62D00001030E006E000E016E13
:106C6A0022C404F0000E056ECFDD850E0024E96E05
:106C7A00000E0120EA6EEECF66F0EECF67F0EECF9F
:106C8A0068F0020E6625F66E000E6721F76E000E9A
:106C9A006821F86E0900F5CF00F00900F5CF01F080
:106CAA0000C06AF001C06BF038D004012251000123
:106CBA00895D23E3030E006E000E016E22C404F008
:106CCA00000E056EA1DD7C0E0024E96E000E012087
:106CDA00EA6EEECF66F0EECF67F0EECF68F066C0F0
:106CEA00F6FF67C0F7FF68C0F8FF0900F5CF00F0AC
:106CFA0000C06AF0000E6B6F01D0696B0ED0000104
:106D0A00696B0BD004012351010A93E02351020A53
:0C6D1A00A2E02351030AC9E0F2D71200E6
:106D26000001776B78C0E1FF79C0E2FFE66A040EE6
:106D36007819E16E79C0E2FF000EE21AE66A6EAFDC
:066D460001D06E9F120057
:106D4C00010E00017525E96E000E7621EA6EEECF7C
:106D5C0000F000C002F0000E705D02E102506F5DA9
:106D6C0003E26FC002F00AD002506F5D006E000E9D
:106D7C007059016E00C06FF001C070F0036A0250D0
:106D8C00035C1CE2280EE96E040EEA6E0350E92641
:106D9C00D8B0EA2AEECF00F06CC0E1FF6DC0E2FF84
:106DAC0000C0E6FF010E6C25006E000E6D21016E19
:106DBC0000C06CF001C06DF0032AE1D7000E006E2C
:106DCC007051005C02E16F51000828E2010E5E2454
:106DDC00E16E000E5F20E26E080EE66E020E5E247F
:106DEC00E16E000E5F20E26E280EE66E040EE66E7B
:106DFC0075C0E9FF76C0EAFFEECF00F000BC07D00B
:106E0C005EC0E1FF5FC0E2FFC80EE66E06D05EC05A
:106E1C00E1FF5FC0E2FF880EE66E19D0010E5E2422
:106E2C00E16E000E5F20E26E080EE66E020E5E242E
:106E3C00E16E000E5F20E26E200EE66E040EE66E32
:106E4C005EC0E1FF5FC0E2FF840EE66E6E9F120033
:106E5C006D98000169BF49D06EAF28D0020E776FD4
:106E6C00010E7825E16E000E7921E26EE66A78C09B
:106E7C00E1FF79C0E2FFC80EE66E010E5E24E16E02
:106E8C00000E5F20E26E080EE66E020E5E24E16ECE
:106E9C00000E5F20E26E280EE66E040EE66E5EC0FB
:106EAC00E1FF5FC0E2FFC80EE66E1ED0010E5E244D
:106EBC00E16E000E5F20E26E080EE66E020E5E249E
:106ECC00E16E000E5F20E26E200EE66E040EE66EA2
:106EDC005EC0E1FF5FC0E2FF8C0EE66E78C0E1FFA2
:106EEC0079C0E2FF840EE66E82D06EBF80D00401C2
:106EFC0020AF55D000016B510401275D04E1000166
:106F0C006A510401265D04E226C46AF027C46BF0C2
:106F1C004CDD010E776F010E5E24E16E000E5F20DA
:106F2C00E26E080EE66E020E5E24E16E000E5F202D
:106F3C00E26E200EE66E040EE66E5EC0E1FF5FC0F0
:106F4C00E2FF800EE66E656B010E7525E16E000E9C
:106F5C007621E26E080EE66E020E7525E16E000ECD
:106F6C007621E26E200EE66E040EE66E75C0E1FF31
:106F7C0076C0E2FF840EE66E010E656F020E782578
:106F8C00E16E000E7921E26E280EE66E040EE66EBE
:106F9C0078C0E1FF79C0E2FFC80EE66E28D0000190
:106FAC00020E776F010E7825E16E000E7921E26EEC
:106FBC00E66A78C0E1FF79C0E2FFC80EE66E010E0A
:106FCC005E24E16E000E5F20E26E080EE66E020E8D
:106FDC005E24E16E000E5F20E26E280EE66E040E5B
:106FEC00E66E5EC0E1FF5FC0E2FFC80EE66E120007
:106FFC00000E0001B21902E1000EB11902E1016AA2
:10700C0009D0B1C0E9FFB2C0EAFFEECF00F0016ACF
:0A701C0000BE012A01C000F01200BE
:1070260020C401F0600E0116050E006E005004E04B
:107036000132019EFF0FFBD70150000A01E06AD022
:1070460046D00001698F080E9A6F64D0EBDD62D0DE
:10705600BBDD60D0880E0001666F000E676F698128
:10706600010E6A6F698F56D041DD54D031EC34F091
:1070760051D0910E006E000E016E040124510026BF
:10708600D8B0012A00C066F001C067F0000169812E
:10709600010E6A6F698F3ED00001698F910EE16E15
:1070A600000EE26E04012451E126D8B0E22A22C481
:1070B600E6FF30D0020E0001B66F000EB76FB86B58
:1070C600B96BBA6BBB6BC7EC33F024D023D0040189
:1070D6002151050AB6E02151060AB8E02151090AF4
:1070E600B7E02151080AB6E02151000ABDE021515E
:1070F600010ABCE02151030AB9E021510A0AB9E0AC
:1071060021510B0AC9E02151070AD4E021510C0A8A
:06711600DDE0DCD71200F1
:10711C000001B251000A12E0B1C000F0000E016E85
:10712C00003600900136780E0024E96E000E012026
:10713C00EA6EEECF04F0EECF05F011D0B1C000F046
:10714C00000E016E003600900136610E0024E96ECF
:10715C00000E0120EA6EEECF04F0EECF05F0020E29
:10716C000424E16E000E0520E26EB3C0E6FFB4C04D
:10717C00E6FF010E0424E16E000E0520E26EB5C0A0
:10718C00E6FF04C0E9FF05C0EAFFEECF00F004C043
:10719C00E1FF05C0E2FF400E0014E66E04C0E9FFFB
:1071AC0005C0EAFFEECF00F004C0E1FF05C0E2FF2E
:1071BC00880E0010E66EB251000A1BE0B1C000F060
:1071CC00000E016E003600900136780E0024026E1F
:1071DC00000E0120036E02C0E9FF03C0EAFF040E9B
:1071EC00EE18006E02C0E1FF03C0E2FF00C0E6FF34
:1071FC001AD0B1C000F0000E016E003600900136BE
:10720C00610E0024026E000E0120036E02C0E9FF25
:10721C0003C0EAFF040EEE18006E02C0E1FF03C0CB
:10722C00E2FF00C0E6FF04C000F005C001F0120050
:10723C0078C0E9FF79C0EAFFEECF00F000AE05D0D0
:10724C0078C0E1FF79C0E2FFE66A0001956B776BCD
:10725C006A6B6B6B696BE1DE030E0001B66F000E9F
:10726C00B76FB86BB96BBA6BBB6BC7EC33F0F0DDB7
:02727C001200FE
:10727E00200E00019A5D03E36DB201D002D0006AC8
:10728E0033D09DC0B1F09EC0B2F0B1DE00522BE102
:10729E00B0C0B1F0010EB26FADC0B3F0AEC0B4F07D
:1072AE00AFC0B5F034DF00C09DF001C09EF08A6B18
:1072BE008B6B8C6B8D6B9DC0B1F09EC0B2F097DE68
:1072CE00005208E08A518B118C118D1102E0006A78
:1072DE000BD0F1D7010E9D25E96E000E9E21EA6EB0
:0A72EE00EECF00F001D0006A12009C
:0E72F800160E6F6E9F0E6B6E7B0E696E12008F
:10730600FB0E0001856F7E0E866F000E876FA60E40
:107316007C6F7F0E7D6F000E7E6F4A0E7F6F7F0E35
:10732600806F000E816F240E826F7F0E836F000EBA
:04733600846F12004E
:10733A0078C0E9FF79C0EAFFEECF00F0000E00BC8A
:10734A00010E0001AD6F040E7819006E00C078F0CE
:10735A009A51080A0AE122C46EFF6E50000803E23D
:10736A00100E9A6F02D0040E9A6F7751010A27E124
:10737A00020E7825E16E000E7921E26E280EE66E85
:10738A00040EE66EDBEC34F09551020A07E178C090
:10739A00E1FF79C0E2FF840EE66E10D0AD51000A1B
:1073AA0007E178C0E1FF79C0E2FFC80EE66E06D0B9
:1073BA0078C0E1FF79C0E2FF880EE66E01D0AEDC4C
:0273CA001200AF
:1073CC0000017751020A02E1BBDC1ED0A6DC65513C
:1073DC00000A19E1010E5E24E16E000E5F20E26EE0
:1073EC00080EE66E020E5E24E16E000E5F20E26E69
:1073FC00200EE66E040EE66E5EC0E1FF5FC0E2FF9B
:0A740C008C0EE66E01D0656B1200D5
:10741600A7C0ADF0A8C0AEF0A9C0AFF0010E000144
:06742600B06F2ADF120026
:10742C00740E0001B66F000EB76FB86BB96BBA6B08
:10743C00BB6BC7EC33F06D92699468A403D0FB0E60
:06744C006816FBD71200D8
:10745200FD0E00018E15016E026AFF0E0216000E6D
:10746200021802E1000E01186BE17E0E8E15016E0C
:1074720001C003F00332039E03C000F0000E016E50
:10748200003600900136003600900136000E0024CE
:10749200026E040E0120036E02C075F003C076F086
:1074A20002C05EF003C05FF0040E5E18006E00C002
:1074B2005EF002C0E9FF03C0EAFFEECF00F000C0B9
:1074C20001F03C0E01160132019E0132019E015073
:1074D2000D0A34E1020E7525E96E000E7621EA6E80
:1074E200EECF01F0EECF02F00250040A02E1280EC4
:1074F200011822E1020E7525E16E000E7621E26E80
:10750200200EE66E040EE66EA76B080EA75D14E26F
:10751200200EE16E040EE26EA751E126D8B0E22AF7
:10752200280EE96E040EEA6EA751E926D8B0EA2ABF
:10753200EECFE6FFA72BE9D780DE01D046DF0DD0E4
:10754200FD0E8E15016E026AFF0E0216000E021863
:0C75520002E1040E011801E1EFDE12005E
:10755E008D0E006E7F0E016E000E026E0E0E00245A
:10756E00F66E000E0120F76E000E0220F86E090076
:10757E00F5CF03F003C004F00F0E0024F66E000EDC
:10758E000120F76E000E0220F86E0900F5CF01F013
:10759E000150035C12E28D0E006E7F0E016E000E26
:1075AE00026E0F0E0024F66E000E0120F76E000E16
:1075BE000220F86E0900F5CF04F08D0E006E7F0EDE
:1075CE00016E000E026E100E0024F66E000E0120EB
:1075DE00F76E000E0220F86E0900F5CF01F0015093
:1075EE00045C12E28D0E006E7F0E016E000E026EB6
:1075FE00100E0024F66E000E0120F76E000E022013
:0E760E00F86E0900F5CF04F004C000F0120081
:10761C000001AA6BAB6BAC6B020EA725F66E000ECD
:10762C00A821F76E000EA921F86E0900F5CF05F020
:10763C00030EA725F66E000EA821F76E000EA921E9
:10764C00F86E0900F5CF00F000C003F0000E046ED8
:10765C0003C001F0006A05500024066E000E0120E4
:10766C00076EA7C008F0A8C009F0A9C00AF0010E67
:10767C000824F66E000E0920F76E000E0A20F86E34
:10768C000900F5CF01F00150020A1BE1060E082497
:10769C00F66E000E0920F76E000E0A20F86E090037
:1076AC00F5CF01F00150AA5D0CE2060E0824F66E2F
:1076BC00000E0920F76E000E0A20F86E0900F5CFB7
:1076CC00AAF0010E0824F66E000E0920F76E000ECB
:1076DC000A20F86E0900F5CF01F00150040A1BE1F5
:1076EC00080E0824F66E000E0920F76E000E0A2014
:1076FC00F86E0900F5CF01F00150AA5D0CE2080EFE
:10770C000824F66E000E0920F76E000E0A20F86EA3
:10771C000900F5CFAAF008C0F6FF09C0F7FF0AC0B0
:10772C00F8FF0900F5CF00F00050AB25016E000EFC
:10773C00AC21026E01C0ABF002C0ACF00750025C91
:10774C0002E10650015C01E30FD008C0F6FF09C04E
:10775C00F7FF0AC0F8FF0900F5CF00F0005008262B
:0E776C00000E09220A2283D7AAC000F01200E4
:10777A00200E00019A5D03E36DB201D002D0006AC7
:10778A0023D09BC0B1F09CC0B2F033DC00521BE1A5
:10779A00010E9B25E96E000E9C21EA6EEECF00F0E9
:1077AA0000C0ABF0AAC0B1F0B26BA7C0B3F0A8C0DA
:1077BA00B4F0A9C0B5F0ADDC00C09BF001C09CF0EC
:0A77CA00ABC000F001D0006A12000D
:1077D400A7C002F0A8C003F0AAC000F0ABC001F03B
:1077E400010E0001AA5F000EAB5B0050011009E01E
:1077F40002C0E1FF03C0E2FFA9C0E6FF024A032A78
:04780400EBD71200AC
:1078080070A019D075C0E9FF76C0EAFFEECF01F08D
:107818000150800A0FE178C0E9FF79C0EAFFEECF96
:1078280001F00150840A06E175C0E1FF76C0E2FF6D
:0C7838008C0EE66E7090DF0E68161200D9
:10784400F2CF02F0F29EA7C0F6FFA8C0F7FFA9C0CE
:10785400F8FFABC0E9FFACC0EAFF0A00016A200EE2
:10786400015C07E2EECFF5FF00000F000000012AE3
:10787400F6D7A68EBF0EA616A684550EA76EAA0E20
:10788400A76EA682A69402BE02D0F29E01D0F28E0A
:027894001200E0
:1078960037DD9B6B9C6B9D6B9E6B6A6A686A29DD04
:1078A6006D8C6E6A710EB66F0F0EB76FB86B010EE8
:1078B600B96F000EBA6FADEC33F06D9CA76B080E76
:1078C600A75D16E2A7C000F0000E016E003600901C
:1078D6000136003600900136000E0024E16E040EDB
:1078E6000120E26EE66AE66AE66AE66AA72BE7D751
:1078F600160E706E68A603D0F70E6816FBD7696B76
:107906006E6B6F6B706B6D98080E786F040E796FE7
:06791600886B9A6B120061
:10791C006984EF0E68166D82750E0001B66F000E4D
:10792C00B76FB86BB96BBA6BBB6BC7EC33F01200AB
:04793C00A19A1200FA
:0A794000D08EA28AA08AF28E1200F7
:10794A0000019A51000A0AE16D6A696AD0DCF3DF24
:0E795A006DB602D06D86FCD7010E9A6F12003A
:1079680000019A51000A0AE16D6A696AC1DC6DB6C4
:1079780002D06D86FCD70001010E9A6F9A51010A58
:1079880008E16DBA06D0686A696A69806988020E7A
:107998009A6F68A405D069A403D0FB0E681642DD6F
:1079A8006DA202D0C7DF77D068A018D069A016D022
:1079B8006EDF040E9A6F200E0401026F040E036F2F
:1079C800080E016F000E0015006E00C000F48C0E4A
:1079D8000011006E00C000F4FE0E681668A805D0FD
:1079E80069A803D097DFEF0E681668AC11D069ACB0
:1079F8000FD0730E0001B66F000EB76FB86BB96B7E
:107A0800010EBA6F000EBB6FC7EC33F0BF0E6816DD
:107A180068AA03D069AA01D0F3DE68A210D069A2CF
:107A28000ED0FF0E0001B66F3F0EB76FB86BB96B83
:107A3800010EBA6F000EBB6FC7EC33F06A6A040E12
:107A480000019A5D02E276DF26D069A623D0A36BF7
:107A5800040EA35D1FE268A619D06CCF8EF0F70E56
:107A68006816780E8E15016E0150000A02E1EDDCF1
:107A78000CD0720EB66F000EB76F8E0EB86F000E78
:107A8800B96FBA6BBB6BC7EC33F001D003D0000100
:087A9800A32BDED74FDF120023
:107AA00032DC9B6B9C6B9D6B9E6B6A6A686A24DC04
:107AB0006D8C6E6A710EA76F0F0EA86FA96B010E09
:107AC000AA6F000EAB6F86DE6D9CA36B080EA35DE4
:107AD00016E2A3C000F0000E016E003600900136E1
:107AE000003600900136000E0024E16E040E0120E5
:107AF000E26EE66AE66AE66AE66AA32BE7D7160E46
:107B0000706E68A603D0F70E6816FBD7696B6E6BB4
:107B10006F6B706B6D98080E786F040E796F886BC1
:047B20009A6B12004A
:107B240096C0A7F097C0A8F0400E0001A96F010EFF
:067B3400AA6F21DE120021
:107B3A002B0E016E400EE16E050EE26ED00EF66E51
:107B4A007E0EF76E000EF86E0900F5CF00F000C049
:107B5A00E6FF0106F9E1400E0001A76F050EA86FC6
:087B6A00400EA96F53DC12006C
:107B72001550000A17E1000E000A03E10F0E05017D
:107B8200001901E00FD001C515F002C516F003C5BA
:107B920017F004C518F005C519F006C51AF007C597
:067BA2001BF000D01200F0
:107BA8009C0E0C6ED70E0D6E0D2EFED70C2EFCD72C
:027BB8001200B9
:107BBA000F0E0501406FA3C041F5400E0001A76FEB
:0C7BCA00050EA86F400EA96F21DC120010
:0A7BD6006D6A696A00019A6B1200E3
:107BE0001C0E5C5C0001A36F000E5D58A46F1C0EA0
:107BF0005C6E000E5D6E800E006E800EA419005C3F
:107C000002E1A351000823E216C0A7F017C0A8F0B4
:107C100018C0A9F019C0AAF05CC0ABF05DC0ACF010
:107C200011DE200E0001A35F000EA45B200E5C2479
:107C3000006E000E5D20016E00C05CF001C05DF0C2
:107C4000200E1626000E172218221922D4D7120051
:107C5000F2CF00F0F29EA3C0F6FFA4C0F7FFA5C0CC
:107C6000F8FFA68EBF0EA616A684A688550EA76E90
:107C7000AA0EA76EA682A69400BE02D0F29E01D0E4
:047C8000F28E12006E
:107C8400000E046E050E056E036A1A501B1003E104
:107C9400010E006E30D01C0E5C5C016E000E5D584F
:107CA400026E000E021802E1400E011803E1010EFB
:107CB400006E21D00350400A02E1006A1CD004C0C7
:107CC400E9FF05C0EAFF5CC0E1FF5DC0E2FFEECF63
:107CD400E6FF010E5C24006E000E5D20016E00C004
:107CE4005CF001C05DF0044A052A010E1A5E000E24
:087CF4001B5A032ACAD7120033
:107CFC00100E0C6E940E0D6E0D2EFED70C2EFCD7A6
:047D0C000000120061
:107D100026DC00C0A3F0FB0E0001A76F7E0EA86F4B
:107D2000000EA96F7BDC00C0A4F0A351005C03E24D
:0C7D3000A3C000F002D0A4C000F01200BC
:047D3C004CDF120006
:107D4000E7DF00C089F0010E8F6F9FC096F0A0C0E2
:107D500097F0A1C092F0A2C093F0A2DE000E016ED7
:0A7D60000150010A01E1F1DD1200FB
:107D6A00000E006E040E016E0050011000E01200B9
:107D7A0000019F6B1C0E5C6E000E5D6EF0DDCDDEA9
:107D8A000052D8B469D0F0DE5BD000019F5320E0E6
:107D9A0074DF00521CE0000E195C08E1000E185C4A
:107DAA0005E1630E175C02E1000E165C01E213DFC7
:107DBA0015C0A3F0FDDE1C0E5C6E000E5D6E000E9B
:107DCA001B1802E1000E1A1802E19F6B156A03D014
:107DDA000001010E9F6F40D01AC000F01BC001F0D5
:107DEA00010E1A5E000E1B5A005001101CE0000E14
:107DFA00195C08E1000E185C05E1630E175C02E1EC
:107E0A00000E165C09E216C0A3F017C0A4F018C051
:107E1A00A5F019C0A6F017DF400E165E000E175A1D
:107E2A00185A195AD9D715C0A3F0C2DE156A14D048
:107E3A0015C0A3F0BDDE156A0FD0FF00156A0CD07D
:107E4A0015500B0AA2E01550150AC6E01550010A92
:0C7E5A00EFE01550040AF1E091D712008F
:107E6600880E00019F6F130EA06F7BDD58DE005257
:107E760013E07CDE0BD015C0A3F09CDE156A91DE04
:107E8600010E006E19D056DE156A06D01550030A8B
:107E9600F2E01550020AF7E000012DDF9FC000F066
:107EA600A0C001F0010E9F5F000EA05B0050011004
:0A7EB60002E1006A01D0D9D71200E2
:107EC0000900F5CFE6FF0006FBE10106F9E112002B
:107FAA0010EE15F0070E006E010E016E9F0EF66EB2
:0E7FBA007F0EF76E000EF86E60EC3FF01200C6
:107ED0002B01020800800000034000042000050080
:107EE000120600630000074E4F204E414D45000032
:0B7EF000000000000000000000000087
:107EFB00090229000101008032090400000203007D
:107F0B000000092101010001222100070581034026
:097F1B000001070501034000010B
:107F24002603550053004200200048004900440045
:107F3400200042006F006F0074006C006F0061004D
:067F4400640065007200FC
:107F4A0022034D0069006B0072006F0065006C002F
:107F5A0065006B00740072006F006E0069006B00B0
:027F6A006100B4
:107F6C000600FF0901A10119012940150026FF0097
:107F7C0075089540810219012940750895409102B8
:017F8C00C034
:107F8D00120100020000000834120100010001027C
:027F9D000001E1
:017F9F0000E1
:047FA00000000000DD
:027FA4000000DB
:047FA60004030904C3
:020000040030CA
:0E000000240E291EFF0181FF0FC00FE00F40EC
:00000001FF
